:100000000C942A000C943F000C943F000C943F0089
:100010000C943F000C943F000C943F000C943F0064
:100020000C943F000C943F000C943F000C943F0054
:100030000C943F000C943F000C943F000C943F0044
:100040000C943F000C943F000C943F000C943F0034
:100050000C943F0011241FBECFE5D8E0DEBFCDBF1A
:1000600010E0A0E6B0E0E4E2F8E002C005900D92F6
:10007000AA36B107D9F70E946F030C9410040C94B0
:100080000000683008F070C0843008F06DC0813026
:1000900009F1813030F08230B1F1833009F064C071
:1000A0004BC0413059F42AB381E090E002C0880F80
:1000B000991F6A95E2F7282B2ABB08952AB381E09D
:1000C00090E002C0880F991F6A95E2F7809582231D
:1000D0008ABB0895413059F427B381E090E002C013
:1000E000880F991F6A95E2F7282B27BB089527B33D
:1000F00081E090E002C0880F991F6A95E2F7809531
:10010000822387BB0895413059F424B381E090E005
:1001100002C0880F991F6A95E2F7282B24BB089527
:1001200024B381E090E002C0880F991F6A95E2F73E
:100130008095822384BB0895413059F421B381E036
:1001400090E002C0880F991F6A95E2F7282B21BB27
:10015000089521B381E090E002C0880F991F6A954D
:10016000E2F78095822381BB0895683008F070C063
:10017000843008F06DC0813009F1813030F0823078
:10018000B1F1833009F064C04BC0413059F42BB356
:1001900081E090E002C0880F991F6A95E2F7282B52
:1001A0002BBB08952BB381E090E002C0880F991F0C
:1001B0006A95E2F7809582238BBB0895413059F40C
:1001C00028B381E090E002C0880F991F6A95E2F79A
:1001D000282B28BB089528B381E090E002C0880F47
:1001E000991F6A95E2F78095822388BB0895413074
:1001F00059F425B381E090E002C0880F991F6A95F9
:10020000E2F7282B25BB089525B381E090E002C0DA
:10021000880F991F6A95E2F78095822385BB089520
:10022000413059F422B381E090E002C0880F991F59
:100230006A95E2F7282B22BB089522B381E090E073
:1002400002C0880F991F6A95E2F78095822382BBCE
:1002500008956830D0F48430C0F4813049F08130A2
:1002600028F0823039F0833081F406C089B305C0AC
:1002700086B303C083B301C080B390E002C09595FC
:1002800087956A95E2F78170089580E00895683057
:10029000B0F58430A0F5813091F0813028F08230C3
:1002A000C9F0833061F521C02BB381E090E002C03A
:1002B000880F991F6A95E2F728272BBB089528B36A
:1002C00081E090E002C0880F991F6A95E2F7282725
:1002D00028BB089525B381E090E002C0880F991FE4
:1002E0006A95E2F7282725BB089522B381E090E0C4
:1002F00002C0880F991F6A95E2F7282722BB08954C
:10030000843080F4813049F0813028F0823039F037
:10031000833041F406C06ABB089567BB089564BB8F
:10032000089561BB0895843080F4813049F08130B4
:1003300028F0823039F0833041F406C06BBB089559
:1003400068BB089565BB089562BB0895843088F446
:10035000813049F0813028F0823039F0833049F41F
:1003600006C089B3089586B3089583B3089580B312
:10037000089580E00895DF92EF92FF920F931F930C
:10038000D82E80E061E041E00E94B500E0EAEE2E68
:10039000EFE0FE2EC7010197F1F780E062E041E057
:1003A0000E94B500C7010197F1F70D2D10E0A801DB
:1003B0004071507074E0559547957A95E1F780E06B
:1003C00063E00E94B500A8014072507065E0559549
:1003D00047956A95E1F780E064E00E94B500A801C6
:1003E0004074507036E0559547953A95E1F780E0B6
:1003F00065E00E94B5004D2D441F4427441F80E056
:1004000066E00E94B500C7010197F1F780E062E065
:1004100040E00E94B500C7010197F1F780E062E07B
:1004200041E00E94B500C7010197F1F781E0D822B1
:1004300080E063E04D2D0E94B500A801427050702D
:100440005595479580E064E00E94B500A80144708E
:100450005070559547955595479580E065E00E9409
:10046000B5000870107083E0159507958A95E1F73F
:1004700080E066E0402F0E94B500C7010197F1F7C8
:1004800080E062E040E00E94B500C7010197F1F70B
:100490001F910F91FF90EF90DF9008951F93CF93DE
:1004A000DF93EC0110E003C00E94BB011F5FFE015F
:1004B000E10FF11D80818823B9F7DF91CF911F9162
:1004C00008950F931F93DF93CF93CDB7DEB7609757
:1004D0000FB6F894DEBF0FBECDBF8E010F5F1F4F6A
:1004E000B8014AE050E00E94CB03C8010E944E02CE
:1004F00060960FB6F894DEBF0FBECDBFCF91DF91EF
:100500001F910F910895DF92EF92FF920F931F9327
:10051000D82E80E061E040E00E94B50030EAE32E92
:100520003FE0F32EC7010197F1F780E062E041E080
:100530000E94B500C7010197F1F70D2D10E0A80149
:100540004071507024E0559547952A95E1F780E079
:1005500063E00E94B500A8014072507095E0559587
:1005600047959A95E1F780E064E00E94B500A80104
:100570004074507086E0559547958A95E1F780E084
:1005800065E00E94B5004D2D441F4427441F80E0C4
:1005900066E00E94B500C7010197F1F780E062E0D4
:1005A00040E00E94B500C7010197F1F780E062E0EA
:1005B00041E00E94B500C7010197F1F781E0D82220
:1005C00080E063E04D2D0E94B500A801427050709C
:1005D0005595479580E064E00E94B500A8014470FD
:1005E0005070559547955595479580E065E00E9478
:1005F000B50008701070F3E015950795FA95E1F7CE
:1006000080E066E0402F0E94B500C7010197F1F736
:1006100080E062E040E00E94B500C7010197F1F779
:100620001F910F91FF90EF90DF90089581E00E945D
:1006300083020895813039F0813050F0823029F002
:10064000833031F404C0605C03C0605F01C0605B54
:10065000862F80680E94830208950F931F938A015A
:100660000E941A03C8010E944E021F910F91089523
:1006700080E061E041E00E94410080E062E041E012
:100680000E94410088EC90E020E931E0F9013197C7
:10069000F1F70197D9F780E063E041E00E94410063
:1006A00080E064E041E00E94410080E065E041E0DC
:1006B0000E94410080E066E041E00E94410083E347
:1006C0000E94830282E30E94830288E20E948302E6
:1006D0008CE00E94830281E00E9483020895AF9221
:1006E000BF92DF92EF92FF920F931F93CF93DF930E
:1006F00082E06FEF0E94800110E003C00E94BB0106
:100700001F5FC12FD0E0FE01E05AFF4F8081882398
:10071000A9F70E94380300E02FE0D22ED11A90E909
:10072000A92E91E0B92E81E1E82EF12CEC1AFD0AF8
:1007300014C0802F6C2F40E650E00E942D0388E803
:1007400093E1F5013197F1F70197D9F70E9416036C
:100750002196CE15DF056CF30F5F02301CF4C0E06C
:10076000D0E0F7CF01E01D2D10C0802F612F40E6B3
:1007700050E00E942D0388E893E1F5013197F1F7ED
:100780000197D9F70E941603115017FFEECF0150C1
:1007900050F700E0E4CFFB019F01E8944230C4F041
:1007A0004532B4F44A3029F497FB1EF490958195B4
:1007B0009F4F642F77270E94FC03805D8A330CF0E3
:1007C000895D8193CB010097A1F716F45DE2519307
:1007D0001082C9010C94EC03DC01FC01672F7191BC
:1007E0007723E1F7329704C07C916D937083629117
:1007F000AE17BF07C8F30895AA1BBB1B51E107C082
:10080000AA1FBB1FA617B70710F0A61BB70B881FA0
:10081000991F5A95A9F780959095BC01CD0108952F
:04082000F894FFCF7A
:0A08240044522E486F7373616D009B
:00000001FF
