:100000000C942A000C9491000C94BA000C94E30018
:100010000C943C000C943C000C943C000C943C0070
:100020000C943C000C943C000C943C000C943C0060
:100030000C943C000C943C000C943C000C943C0050
:100040000C943C000C943C000C943C000C943C0040
:100050000C943C0011241FBECFE5D8E0DEBFCDBF1D
:1000600010E0A0E6B0E001C01D92A636B107E1F7AE
:100070000E943A040C9425050C940000FC018BB7F7
:100080009081892B8BBF903419F485B7918106C07C
:10009000903839F495B78181880F880F892B85BFF7
:1000A0000895903261F424B7818190E0817090705E
:1000B00036E0880F991F3A95E1F7282B24BF089561
:1000C000FC019BB78081809589238BBF0895FC013B
:1000D0008081803419F485B7918106C0803839F465
:1000E00095B78181880F880F892B85BF089580324D
:1000F00061F424B7818190E08170907046E0880FB0
:10010000991F4A95E1F7282B24BF0895633040F4E6
:10011000E62FF0E0EE0FFF1FE05AFF4F9183808340
:1001200008951F920F920FB60F9211242F933F93B1
:100130004F935F936F937F938F939F93AF93BF93EF
:10014000EF93FF93E0916000F0916100309709F028
:100150000995FF91EF91BF91AF919F918F917F9101
:100160006F915F914F913F912F910F900FBE0F9024
:100170001F9018951F920F920FB60F9211242F9374
:100180003F934F935F936F937F938F939F93AF931F
:10019000BF93EF93FF93E0916200F091630030977B
:1001A00009F00995FF91EF91BF91AF919F918F91C8
:1001B0007F916F915F914F913F912F910F900FBE63
:1001C0000F901F9018951F920F920FB60F92112447
:1001D0002F933F934F935F936F937F938F939F934F
:1001E000AF93BF93EF93FF93E0916400F0916500AC
:1001F000309709F00995FF91EF91BF91AF919F91D1
:100200008F917F916F915F914F913F912F910F90BF
:100210000FBE0F901F901895683008F070C08430A2
:1002200008F06DC0813009F1813030F08230B1F1D9
:10023000833009F064C04BC0413059F42AB381E0E7
:1002400090E002C0880F991F6A95E2F7282B2ABB1D
:1002500008952AB381E090E002C0880F991F6A9543
:10026000E2F7809582238ABB0895413059F427B381
:1002700081E090E002C0880F991F6A95E2F7282B71
:1002800027BB089527B381E090E002C0880F991F33
:100290006A95E2F78095822387BB0895413059F42F
:1002A00024B381E090E002C0880F991F6A95E2F7BD
:1002B000282B24BB089524B381E090E002C0880F6E
:1002C000991F6A95E2F78095822384BB0895413097
:1002D00059F421B381E090E002C0880F991F6A951C
:1002E000E2F7282B21BB089521B381E090E002C002
:1002F000880F991F6A95E2F78095822381BB089544
:10030000683008F070C0843008F06DC0813009F1A9
:10031000813030F08230B1F1833009F064C04BC0DD
:10032000413059F42BB381E090E002C0880F991F4F
:100330006A95E2F7282B2BBB08952BB381E090E060
:1003400002C0880F991F6A95E2F7809582238BBBC4
:100350000895413059F428B381E090E002C0880F3D
:10036000991F6A95E2F7282B28BB089528B381E0EE
:1003700090E002C0880F991F6A95E2F7809582236A
:1003800088BB0895413059F425B381E090E002C064
:10039000880F991F6A95E2F7282B25BB089525B38E
:1003A00081E090E002C0880F991F6A95E2F780957E
:1003B000822385BB0895413059F422B381E090E057
:1003C00002C0880F991F6A95E2F7282B22BB089577
:1003D00022B381E090E002C0880F991F6A95E2F78E
:1003E0008095822382BB08956830D0F48430C0F4B5
:1003F000813049F0813028F0823039F0833081F447
:1004000006C089B305C086B303C083B301C080B3FF
:1004100090E002C0959587956A95E2F781700895FE
:1004200080E008956830B0F58430A0F5813091F017
:10043000813028F08230C9F0833061F521C02BB3C0
:1004400081E090E002C0880F991F6A95E2F72827A3
:100450002BBB089528B381E090E002C0880F991F5C
:100460006A95E2F7282728BB089525B381E090E03C
:1004700002C0880F991F6A95E2F7282725BB0895C7
:1004800022B381E090E002C0880F991F6A95E2F7DD
:10049000282722BB0895843080F4813049F08130D0
:1004A00028F0823039F0833041F406C06ABB0895E9
:1004B00067BB089564BB089561BB0895843080F4E0
:1004C000813049F0813028F0823039F0833041F4B6
:1004D00006C06BBB089568BB089565BB089562BBF9
:1004E0000895843088F4813049F0813028F08230DA
:1004F00039F0833049F406C089B3089586B308956E
:1005000083B3089580B3089580E00895DF92EF9259
:10051000FF920F931F93D82E80E061E041E00E948C
:100520008001E0EAEE2EEFE0FE2EC7010197F1F721
:1005300080E062E041E00E948001C7010197F1F78D
:100540000D2D10E0A8014071507074E0559547954D
:100550007A95E1F780E063E00E948001A801407293
:10056000507065E0559547956A95E1F780E064E045
:100570000E948001A8014074507036E0559547955F
:100580003A95E1F780E065E00E9480014D2D441F1F
:100590004427441F80E066E00E948001C701019764
:1005A000F1F780E062E040E00E948001C70101971E
:1005B000F1F780E062E041E00E948001C70101970D
:1005C000F1F781E0D82280E063E04D2D0E948001A8
:1005D000A801427050705595479580E064E00E94F4
:1005E0008001A801447050705595479555954795E1
:1005F00080E065E00E9480010870107083E015952E
:1006000007958A95E1F780E066E0402F0E9480011F
:10061000C7010197F1F780E062E040E00E948001AD
:10062000C7010197F1F71F910F91FF90EF90DF90B5
:1006300008951F93CF93DF93EC0110E003C00E9455
:1006400086021F5FFE01E10FF11D80818823B9F74B
:10065000DF91CF911F9108950F931F93DF93CF9355
:10066000CDB7DEB760970FB6F894DEBF0FBECDBF33
:100670008E010F5F1F4FB8014AE050E00E94E00476
:10068000C8010E94190360960FB6F894DEBF0FBE32
:10069000CDBFCF91DF911F910F910895DF92EF921F
:1006A000FF920F931F93D82E80E061E040E00E94FC
:1006B000800130EAE32E3FE0F32EC7010197F1F706
:1006C00080E062E041E00E948001C7010197F1F7FC
:1006D0000D2D10E0A8014071507024E0559547950C
:1006E0002A95E1F780E063E00E948001A801407252
:1006F000507095E0559547959A95E1F780E064E054
:100700000E948001A8014074507086E0559547957D
:100710008A95E1F780E065E00E9480014D2D441F3D
:100720004427441F80E066E00E948001C7010197D2
:10073000F1F780E062E040E00E948001C70101978C
:10074000F1F780E062E041E00E948001C70101977B
:10075000F1F781E0D82280E063E04D2D0E94800116
:10076000A801427050705595479580E064E00E9462
:100770008001A8014470507055954795559547954F
:1007800080E065E00E94800108701070F3E015952C
:100790000795FA95E1F780E066E0402F0E9480011E
:1007A000C7010197F1F780E062E040E00E9480011C
:1007B000C7010197F1F71F910F91FF90EF90DF9024
:1007C000089581E00E944E030895813039F0813010
:1007D00050F0823029F0833031F404C0605C03C0F3
:1007E000605F01C0605B862F80680E944E030895A1
:1007F0000F931F938A010E94E503C8010E94190309
:100800001F910F91089580E061E041E00E940C018A
:1008100080E062E041E00E940C0188EC90E020E979
:1008200031E0F9013197F1F70197D9F780E063E002
:1008300041E00E940C0180E064E041E00E940C0174
:1008400080E065E041E00E940C0180E066E041E06C
:100850000E940C0183E30E944E0382E30E944E0338
:1008600088E20E944E038CE00E944E0381E00E94C9
:100870004E030895EF92FF921F93DF93CF9300D022
:1008800000D0CDB7DEB70E94030419821A8281E03E
:100890008B838C83CE0101960E94870480E9E82E29
:1008A00081E0F82E80E00E94A604182F80E060E02E
:1008B0000E94E5030E94E103812F90E00E942C0337
:1008C00084EF91E0F7013197F1F70197D9F7EACF7B
:1008D000FC0187B3806B87BBBE982281922F9370F7
:1008E000906583818295880F807E892B9081990FF6
:1008F000990F990F982B8181880F880F892B8DB9BB
:100900008EB1269526952170282B2EB90895FC01CD
:1009100087B38F7487BBBE9A2281922F93709064A5
:1009200083818295880F807E892B9081990F990F02
:10093000990F982B8181880F880F892B8DB98EB1E3
:10094000269526952170282B2EB908958FB9779B6F
:10095000FECF8FB10895AC0120E005C0EFB9779BC1
:10096000FECF8FB12F5FFA01E20FF11D8081882346
:10097000A9F70895DF93CF930F92CDB7DEB7DC01CF
:10098000CE010196282F8FB9779BFECF9FB18FEFB5
:1009900089839C9390E009C09F5F2FB9779BFECF1E
:1009A0008FB1FD01E90FF11D8083FD01E90FF11DFC
:1009B0008081833289F710820F90CF91DF91089563
:1009C000FB019F01E8944230C4F04532B4F44A3050
:1009D00029F497FB1EF4909581959F4F642F7727FC
:1009E0000E941105805D8A330CF0895D8193CB01F3
:1009F0000097A1F716F45DE251931082C9010C949F
:100A00000105DC01FC01672F71917723E1F7329733
:100A100004C07C916D9370836291AE17BF07C8F3D9
:100A20000895AA1BBB1B51E107C0AA1FBB1FA61735
:100A3000B70710F0A61BB70B881F991F5A95A9F787
:0E0A400080959095BC01CD010895F894FFCFEC
:00000001FF
