:100000000C942A000C9434000C9434000C943400AA
:100010000C9434000C9434000C9434000C94340090
:100020000C9434000C9434000C9434000C94340080
:100030000C9434000C9434000C9434000C94340070
:100040000C9434000C9434000C9434000C94340060
:100050000C94340011241FBECFE5D8E0DEBFCDBF25
:100060000E9477010C9461030C940000683008F042
:1000700070C0843008F06DC0813009F1813030F0FB
:100080008230B1F1833009F064C04BC0413059F483
:100090002AB381E090E002C0880F991F6A95E2F7C9
:1000A000282B2ABB08952AB381E090E002C0880F74
:1000B000991F6A95E2F7809582238ABB08954130A3
:1000C00059F427B381E090E002C0880F991F6A9528
:1000D000E2F7282B27BB089527B381E090E002C008
:1000E000880F991F6A95E2F78095822387BB089550
:1000F000413059F424B381E090E002C0880F991F89
:100100006A95E2F7282B24BB089524B381E090E0A0
:1001100002C0880F991F6A95E2F78095822384BBFD
:100120000895413059F421B381E090E002C0880F76
:10013000991F6A95E2F7282B21BB089521B381E02E
:1001400090E002C0880F991F6A95E2F7809582239C
:1001500081BB0895683008F070C0843008F06DC02D
:10016000813009F1813030F08230B1F1833009F013
:1001700064C04BC0413059F42BB381E090E002C021
:10018000880F991F6A95E2F7282B2BBB08952BB394
:1001900081E090E002C0880F991F6A95E2F7809590
:1001A00082238BBB0895413059F428B381E090E05D
:1001B00002C0880F991F6A95E2F7282B28BB089583
:1001C00028B381E090E002C0880F991F6A95E2F79A
:1001D0008095822388BB0895413059F425B381E08E
:1001E00090E002C0880F991F6A95E2F7282B25BB83
:1001F000089525B381E090E002C0880F991F6A95A9
:10020000E2F78095822385BB0895413059F422B3EB
:1002100081E090E002C0880F991F6A95E2F7282BD1
:1002200022BB089522B381E090E002C0880F991F9D
:100230006A95E2F78095822382BB08956830D0F4F6
:100240008430C0F4813049F0813028F0823039F0B8
:10025000833081F406C089B305C086B303C083B37D
:1002600001C080B390E002C0959587956A95E2F74A
:100270008170089580E00895843080F4813049F0E1
:10028000813028F0823039F0833041F406C06ABBF7
:10029000089567BB089564BB089561BB08958430D9
:1002A00080F4813049F0813028F0823039F0833099
:1002B00041F406C06BBB089568BB089565BB089503
:1002C00062BB0895843088F4813049F0813028F091
:1002D000823039F0833049F406C089B3089586B37B
:1002E000089583B3089580B3089580E00895CF9270
:1002F000DF92FF920F931F93CF93DF930E94270308
:1003000010E0FF2400E080EEC82E8EE2D82EC0E47C
:10031000DCE901C010E080E00E94070381E00E9458
:100320001703812F6AE00E9455030E94F101C60164
:100330000197F1F781E00E94070380E00E94170314
:10034000812F6AE00E945503892F0E94F101C601A6
:100350000197F1F783E062E00E941E01882399F47F
:10036000CE010197F1F783E062E00E941E0188232D
:1003700091F6FF2081F6133611F410E001C01F5FE3
:10038000FF24F394C8CF83E063E00E941E0188231A
:10039000A1F4CE010197F1F783E063E00E941E0112
:1003A000882309F0B8CF002309F0B5CF112311F449
:1003B00013E601C0115001E0AECF83E064E00E947B
:1003C0001E01882319F0FF2400E0A5CFCE0101977C
:1003D000F1F783E064E00E941E01882309F49ACFBC
:1003E0009ACF843009F475C0853050F48130C1F162
:1003F0008130C8F08230C1F1833009F007C14CC0B0
:10040000873009F49AC0883038F4853009F474C014
:10041000863009F0FBC088C0883009F4B0C089304C
:1004200009F0F4C0D0C080E061E041E00E94AA0081
:1004300080E062E041E00E94AA0080E063E041E0E9
:100440000E94AA0080E064E041E00E94AA0080E0EF
:1004500065E041E00E94AA0080E066E041E089C0DA
:1004600080E061E040E06CC080E061E041E00E943B
:10047000AA0080E062E041E00E94AA0080E063E020
:1004800040E00E94AA0080E064E041E00E94AA00EF
:1004900080E065E041E017C080E061E041E00E945B
:1004A000AA0080E062E041E00E94AA0080E063E0F0
:1004B00041E00E94AA0080E064E041E00E94AA00BE
:1004C00080E065E040E00E94AA0080E066E040E055
:1004D00072C080E061E040E00E94AA0080E062E03B
:1004E00041E00E94AA0080E063E041E00E94AA008F
:1004F00080E064E040E012C080E061E041E00E9402
:10050000AA0080E062E040E00E94AA0080E063E090
:1005100041E00E94AA0080E064E041E00E94AA005D
:1005200080E065E040E042C080E061E041E00E94A0
:10053000AA0080E062E040E02AC080E061E041E0A3
:100540000E94AA0080E062E041E00E94AA0080E0F0
:1005500063E041E00E94AA0080E064E040E00E9485
:10056000AA0080E065E040E00E94AA0080E066E02A
:1005700040E00E94AA0080E067E040E021C080E007
:1005800061E041E00E94AA0080E062E041E00E9458
:10059000AA0080E063E041E00E94AA0080E064E0FD
:1005A00041E00E94AA0080E065E041E00E94AA00CC
:1005B00080E066E041E00E94AA0080E067E041E060
:1005C0000E94AA00089580E061E041E00E94AA0034
:1005D00080E062E041E00E94AA0080E063E041E048
:1005E0000E94AA0080E064E040E00E94AA0080E04F
:1005F00065E040E00E94AA0080E066E041E00E94E1
:10060000AA0080E067E041E00E94AA0008958823E4
:1006100031F482E066E040E00E94AA000895813053
:1006200029F482E067E040E00E94AA000895882350
:1006300031F482E066E041E00E94AA000895813032
:1006400029F482E067E041E00E94AA00089580E07A
:1006500061E041E00E94360080E062E041E00E94FB
:10066000360080E063E041E00E94360080E064E014
:1006700041E00E94360080E065E041E00E943600E3
:1006800080E066E041E00E94360080E067E041E003
:100690000E94360082E066E041E00E94360082E07F
:1006A00067E041E00E9436000895991B79E004C09C
:1006B000991F961708F0961B881F7A95C9F78095A1
:0606C0000895F894FFCF3D
:00000001FF
