:100000000C942A000C94B5000C94DE000C940701AB
:100010000C9447000C9447000C9447000C94470044
:100020000C9447000C9447000C9447000C94470034
:100030000C9447000C9447000C9447000C94470024
:100040000C9447000C9447000C9447000C94470014
:100050000C94470011241FBECFE5D8E0DEBFCDBF12
:1000600010E0A0E6B0E0E4E8FAE002C005900D92EE
:10007000AE36B107D9F710E0AEE6B0E001C01D9290
:10008000A437B107E1F70E945E040C9440050C947C
:100090000000FC0187B19181892B9281892B87B95E
:1000A00086B19081892B86B9379A089597B1907E51
:1000B000982B97B9369A349BFECF349A24B135B138
:1000C000C9010895FC018BB79081892B8BBF9034B7
:1000D00019F485B7918106C0903839F495B78181BC
:1000E000880F880F892B85BF0895903261F424B75B
:1000F000818190E08170907036E0880F991F3A9569
:10010000E1F7282B24BF0895FC019BB780818095DF
:1001100089238BBF0895FC018081803419F485B751
:10012000918106C0803839F495B78181880F880F96
:10013000892B85BF0895803261F424B7818190E0D6
:100140008170907046E0880F991F4A95E1F7282B3F
:1001500024BF0895633040F4E62FF0E0EE0FFF1F58
:10016000E259FF4F9183808308951F920F920FB63B
:100170000F9211242F933F934F935F936F937F932D
:100180008F939F93AF93BF93EF93FF93E0916E0094
:10019000F0916F00309709F00995FF91EF91BF91B1
:1001A000AF919F918F917F916F915F914F913F910F
:1001B0002F910F900FBE0F901F9018951F920F92C6
:1001C0000FB60F9211242F933F934F935F936F932A
:1001D0007F938F939F93AF93BF93EF93FF93E091A0
:1001E0007000F0917100309709F00995FF91EF913F
:1001F000BF91AF919F918F917F916F915F914F913F
:100200003F912F910F900FBE0F901F9018951F9246
:100210000F920FB60F9211242F933F934F935F933A
:100220006F937F938F939F93AF93BF93EF93FF93BE
:10023000E0917200F0917300309709F00995FF91F9
:10024000EF91BF91AF919F918F917F916F915F914E
:100250004F913F912F910F900FBE0F901F901895C7
:10026000683008F070C0843008F06DC0813009F14A
:10027000813030F08230B1F1833009F064C04BC07E
:10028000413059F42AB381E090E002C0880F991FF1
:100290006A95E2F7282B2ABB08952AB381E090E003
:1002A00002C0880F991F6A95E2F7809582238ABB66
:1002B0000895413059F427B381E090E002C0880FDF
:1002C000991F6A95E2F7282B27BB089527B381E091
:1002D00090E002C0880F991F6A95E2F7809582230B
:1002E00087BB0895413059F424B381E090E002C007
:1002F000880F991F6A95E2F7282B24BB089524B331
:1003000081E090E002C0880F991F6A95E2F780951E
:10031000822384BB0895413059F421B381E090E0F9
:1003200002C0880F991F6A95E2F7282B21BB089518
:1003300021B381E090E002C0880F991F6A95E2F72F
:100340008095822381BB0895683008F070C08430A6
:1003500008F06DC0813009F1813030F08230B1F1A8
:10036000833009F064C04BC0413059F42BB381E0B5
:1003700090E002C0880F991F6A95E2F7282B2BBBEB
:1003800008952BB381E090E002C0880F991F6A9511
:10039000E2F7809582238BBB0895413059F428B34E
:1003A00081E090E002C0880F991F6A95E2F7282B40
:1003B00028BB089528B381E090E002C0880F991F00
:1003C0006A95E2F78095822388BB0895413059F4FD
:1003D00025B381E090E002C0880F991F6A95E2F78B
:1003E000282B25BB089525B381E090E002C0880F3B
:1003F000991F6A95E2F78095822385BB0895413065
:1004000059F422B381E090E002C0880F991F6A95E9
:10041000E2F7282B22BB089522B381E090E002C0CE
:10042000880F991F6A95E2F78095822382BB089511
:100430006830D0F48430C0F4813049F0813028F045
:10044000823039F0833081F406C089B305C086B3A9
:1004500003C083B301C080B390E002C09595879537
:100460006A95E2F78170089580E008956830B0F5EC
:100470008430A0F5813091F0813028F08230C9F0CD
:10048000833061F521C02BB381E090E002C0880F7A
:10049000991F6A95E2F728272BBB089528B381E0BE
:1004A00090E002C0880F991F6A95E2F7282728BBC1
:1004B000089525B381E090E002C0880F991F6A95E6
:1004C000E2F7282725BB089522B381E090E002C01F
:1004D000880F991F6A95E2F7282722BB0895843078
:1004E00080F4813049F0813028F0823039F0833057
:1004F00041F406C06ABB089567BB089564BB0895C4
:1005000061BB0895843080F4813049F0813028F057
:10051000823039F0833041F406C06BBB089568BB6C
:10052000089565BB089562BB0895843088F48130D6
:1005300049F0813028F0823039F0833049F406C028
:1005400089B3089586B3089583B3089580B3089559
:1005500080E00895DF92EF92FF920F931F93D82EC1
:1005600080E061E041E00E94A401E0EAEE2EEFE0CD
:10057000FE2EC7010197F1F780E062E041E00E94A2
:10058000A401C7010197F1F70D2D10E0A8014071FA
:10059000507074E0559547957A95E1F780E063E0F7
:1005A0000E94A401A8014072507065E055954795DE
:1005B0006A95E1F780E064E00E94A401A80140741C
:1005C000507036E0559547953A95E1F780E065E043
:1005D0000E94A4014D2D441F4427441F80E066E083
:1005E0000E94A401C7010197F1F780E062E040E0BA
:1005F0000E94A401C7010197F1F780E062E041E0A9
:100600000E94A401C7010197F1F781E0D82280E0A0
:1006100063E04D2D0E94A401A801427050705595D1
:10062000479580E064E00E94A401A80144705070E6
:10063000559547955595479580E065E00E94A40142
:100640000870107083E0159507958A95E1F780E0B2
:1006500066E0402F0E94A401C7010197F1F780E0F6
:1006600062E040E00E94A401C7010197F1F71F91E9
:100670000F91FF90EF90DF9008951F93CF93DF933A
:10068000EC0110E003C00E94AA021F5FFE01E10F0F
:10069000F11D80818823B9F7DF91CF911F910895D3
:1006A0000F931F93DF93CF93CDB7DEB760970FB64D
:1006B000F894DEBF0FBECDBF8E010F5F1F4FB80194
:1006C0004AE050E00E94FB04C8010E943D0360968E
:1006D0000FB6F894DEBF0FBECDBFCF91DF911F9153
:1006E0000F910895DF92EF92FF920F931F93D82EF0
:1006F00080E061E040E00E94A40130EAE32E3FE0A8
:10070000F32EC7010197F1F780E062E041E00E941B
:10071000A401C7010197F1F70D2D10E0A801407168
:10072000507024E0559547952A95E1F780E063E005
:100730000E94A401A8014072507095E0559547951C
:100740009A95E1F780E064E00E94A401A80140745A
:10075000507086E0559547958A95E1F780E065E011
:100760000E94A4014D2D441F4427441F80E066E0F1
:100770000E94A401C7010197F1F780E062E040E028
:100780000E94A401C7010197F1F780E062E041E017
:100790000E94A401C7010197F1F781E0D82280E00F
:1007A00063E04D2D0E94A401A80142705070559540
:1007B000479580E064E00E94A401A8014470507055
:1007C000559547955595479580E065E00E94A401B1
:1007D00008701070F3E015950795FA95E1F780E041
:1007E00066E0402F0E94A401C7010197F1F780E065
:1007F00062E040E00E94A401C7010197F1F71F9158
:100800000F91FF90EF90DF90089581E00E947203B6
:100810000895813039F0813050F0823029F08330F2
:1008200031F404C0605C03C0605F01C0605B862F70
:1008300080680E94720308950F931F938A010E949B
:100840000904C8010E943D031F910F91089580E0A3
:1008500061E041E00E94300180E062E041E00E94FE
:10086000300188EC90E020E931E0F9013197F1F7AF
:100870000197D9F780E063E041E00E94300180E019
:1008800064E041E00E94300180E065E041E00E94C8
:10089000300180E066E041E00E94300183E30E9485
:1008A000720382E30E94720388E20E9472038CE06A
:1008B0000E94720381E00E94720308958F929F92BA
:1008C000AF92BF92CF92DF92EF92FF920F931F935E
:1008D000DF93CF9300D000D00F92CDB7DEB7DE010B
:1008E0001396EAE6F0E083E001900D928150E1F783
:1008F000CE0103960E94490080E4898382E08A83C6
:10090000CE0101960E9462008FB780688FBF81EE92
:1009100094E060E00E94AA0082E06FEF0E946F0204
:1009200010E003C00E94AA021F5FE12EFF24F7011E
:10093000E05AFF4F80818823A9F70E942704DD2415
:100940002FE0C22EC11A90E9892E91E0992E81E103
:10095000A82EB12CAE18BF0815C08D2D602F40E613
:1009600050E00E941C0488E893E1F4013197F1F70C
:100970000197D9F70E9405040F5F1F4F0A151B0549
:1009800064F3D39481E08D151CF000E010E0F6CF05
:1009900001E01C2D10C0802F612F40E650E00E9426
:1009A0001C0488E893E1F4013197F1F70197D9F736
:1009B0000E940504115017FFEECF015050F7DD24BF
:1009C000E4CF1F9380E00E945600182F0E94050478
:1009D00080E060E00E940904812F90E00E945003B3
:1009E00080E29EE420E931E0F9013197F1F70197C7
:1009F000D9F71F910895FB019F01E8944230C4F09C
:100A00004532B4F44A3029F497FB1EF49095819551
:100A10009F4F642F77270E942C05805D8A330CF04E
:100A2000895D8193CB010097A1F716F45DE25193A4
:100A30001082C9010C941C05DC01FC01672F719127
:100A40007723E1F7329704C07C916D9370836291B4
:100A5000AE17BF07C8F30895AA1BBB1B51E107C01F
:100A6000AA1FBB1FA617B70710F0A61BB70B881F3E
:100A7000991F5A95A9F780959095BC01CD010895CD
:040A8000F894FFCF18
:0E0A840044522E486F7373616D0006004000EF
:00000001FF
