:100000000C942A000C949C000C94C5000C94EE00F7
:100010000C9447000C9447000C9447000C94470044
:100020000C9447000C9447000C9447000C94470034
:100030000C9447000C9447000C9447000C94470024
:100040000C9447000C9447000C9447000C94470014
:100050000C94470011241FBECFE5D8E0DEBFCDBF12
:1000600010E0A0E6B0E0E8E7FAE002C005900D92EB
:10007000A236B107D9F710E0A2E6B0E001C01D92A8
:10008000A836B107E1F70E9445040C943A050C9498
:100090000000FC018BB79081892B8BBF903419F441
:1000A00085B7918106C0903839F495B78181880F62
:1000B000880F892B85BF0895903261F424B7818120
:1000C00090E08170907036E0880F991F3A95E1F7C3
:1000D000282B24BF0895FC019BB78081809589233C
:1000E0008BBF0895FC018081803419F485B791811C
:1000F00006C0803839F495B78181880F880F892B25
:1001000085BF0895803261F424B7818190E08170C9
:10011000907046E0880F991F4A95E1F7282B24BF7D
:100120000895633040F4E62FF0E0EE0FFF1FEE5924
:10013000FF4F9183808308951F920F920FB60F9205
:1001400011242F933F934F935F936F937F938F93DC
:100150009F93AF93BF93EF93FF93E0916200F09171
:100160006300309709F00995FF91EF91BF91AF912E
:100170009F918F917F916F915F914F913F912F91BF
:100180000F900FBE0F901F9018951F920F920FB6F1
:100190000F9211242F933F934F935F936F937F930D
:1001A0008F939F93AF93BF93EF93FF93E09164007E
:1001B000F0916500309709F00995FF91EF91BF919B
:1001C000AF919F918F917F916F915F914F913F91EF
:1001D0002F910F900FBE0F901F9018951F920F92A6
:1001E0000FB60F9211242F933F934F935F936F930A
:1001F0007F938F939F93AF93BF93EF93FF93E09180
:100200006600F0916700309709F00995FF91EF9132
:10021000BF91AF919F918F917F916F915F914F911E
:100220003F912F910F900FBE0F901F90189568303F
:1002300008F070C0843008F06DC0813009F1813061
:1002400030F08230B1F1833009F064C04BC04130EE
:1002500059F42AB381E090E002C0880F991F6A9593
:10026000E2F7282B2ABB08952AB381E090E002C070
:10027000880F991F6A95E2F7809582238ABB0895BB
:10028000413059F427B381E090E002C0880F991FF4
:100290006A95E2F7282B27BB089527B381E090E009
:1002A00002C0880F991F6A95E2F78095822387BB69
:1002B0000895413059F424B381E090E002C0880FE2
:1002C000991F6A95E2F7282B24BB089524B381E097
:1002D00090E002C0880F991F6A95E2F7809582230B
:1002E00084BB0895413059F421B381E090E002C00D
:1002F000880F991F6A95E2F7282B21BB089521B337
:1003000081E090E002C0880F991F6A95E2F780951E
:10031000822381BB0895683008F070C0843008F0F3
:100320006DC0813009F1813030F08230B1F183301D
:1003300009F064C04BC0413059F42BB381E090E028
:1003400002C0880F991F6A95E2F7282B2BBB0895EE
:100350002BB381E090E002C0880F991F6A95E2F705
:10036000809582238BBB0895413059F428B381E0F6
:1003700090E002C0880F991F6A95E2F7282B28BBEE
:10038000089528B381E090E002C0880F991F6A9514
:10039000E2F78095822388BB0895413059F425B354
:1003A00081E090E002C0880F991F6A95E2F7282B40
:1003B00025BB089525B381E090E002C0880F991F06
:1003C0006A95E2F78095822385BB0895413059F400
:1003D00022B381E090E002C0880F991F6A95E2F78E
:1003E000282B22BB089522B381E090E002C0880F41
:1003F000991F6A95E2F78095822382BB0895683041
:10040000D0F48430C0F4813049F0813028F082305B
:1004100039F0833081F406C089B305C086B303C0C8
:1004200083B301C080B390E002C0959587956A952B
:10043000E2F78170089580E008956830B0F5843067
:10044000A0F5813091F0813028F08230C9F08330FE
:1004500061F521C02BB381E090E002C0880F991FA5
:100460006A95E2F728272BBB089528B381E090E036
:1004700002C0880F991F6A95E2F7282728BB0895C4
:1004800025B381E090E002C0880F991F6A95E2F7DA
:10049000282725BB089522B381E090E002C0880F91
:1004A000991F6A95E2F7282722BB0895843080F4CB
:1004B000813049F0813028F0823039F0833041F4C6
:1004C00006C06ABB089567BB089564BB089561BB0D
:1004D0000895843080F4813049F0813028F08230F2
:1004E00039F0833041F406C06BBB089568BB0895B2
:1004F00065BB089562BB0895843088F4813049F06B
:10050000813028F0823039F0833049F406C089B355
:10051000089586B3089583B3089580B3089580E065
:100520000895DF92EF92FF920F931F93D82E80E0F1
:1005300061E041E00E948B01E0EAEE2EEFE0FE2E4A
:10054000C7010197F1F780E062E041E00E948B0172
:10055000C7010197F1F70D2D10E0A801407150700F
:1005600074E0559547957A95E1F780E063E00E9445
:100570008B01A8014072507065E0559547956A95CA
:10058000E1F780E064E00E948B01A80140745070A4
:1005900036E0559547953A95E1F780E065E00E9491
:1005A0008B014D2D441F4427441F80E066E00E94CC
:1005B0008B01C7010197F1F780E062E040E00E9403
:1005C0008B01C7010197F1F780E062E041E00E94F2
:1005D0008B01C7010197F1F781E0D82280E063E049
:1005E0004D2D0E948B01A801427050705595479582
:1005F00080E064E00E948B01A80144705070559522
:1006000047955595479580E065E00E948B010870FD
:10061000107083E0159507958A95E1F780E066E014
:10062000402F0E948B01C7010197F1F780E062E043
:1006300040E00E948B01C7010197F1F71F910F91D4
:10064000FF90EF90DF9008951F93CF93DF93EC011D
:1006500010E003C00E9491021F5FFE01E10FF11D37
:1006600080818823B9F7DF91CF911F9108950F936F
:100670001F93DF93CF93CDB7DEB760970FB6F89493
:10068000DEBF0FBECDBF8E010F5F1F4FB8014AE026
:1006900050E00E94F504C8010E94240360960FB642
:1006A000F894DEBF0FBECDBFCF91DF911F910F91A8
:1006B0000895DF92EF92FF920F931F93D82E80E060
:1006C00061E040E00E948B0130EAE32E3FE0F32E30
:1006D000C7010197F1F780E062E041E00E948B01E1
:1006E000C7010197F1F70D2D10E0A801407150707E
:1006F00024E0559547952A95E1F780E063E00E9454
:100700008B01A8014072507095E0559547959A95D8
:10071000E1F780E064E00E948B01A8014074507012
:1007200086E0559547958A95E1F780E065E00E945F
:100730008B014D2D441F4427441F80E066E00E943A
:100740008B01C7010197F1F780E062E040E00E9471
:100750008B01C7010197F1F780E062E041E00E9460
:100760008B01C7010197F1F781E0D82280E063E0B7
:100770004D2D0E948B01A8014270507055954795F0
:1007800080E064E00E948B01A80144705070559590
:1007900047955595479580E065E00E948B0108706C
:1007A0001070F3E015950795FA95E1F780E066E0A3
:1007B000402F0E948B01C7010197F1F780E062E0B2
:1007C00040E00E948B01C7010197F1F71F910F9143
:1007D000FF90EF90DF90089581E00E945903089503
:1007E000813039F0813050F0823029F0833031F49B
:1007F00004C0605C03C0605F01C0605B862F8068DE
:100800000E94590308950F931F938A010E94F003D9
:10081000C8010E9424031F910F91089580E061E0B8
:1008200041E00E94170180E062E041E00E94170170
:1008300088EC90E020E931E0F9013197F1F7019778
:10084000D9F780E063E041E00E94170180E064E0B6
:1008500041E00E94170180E065E041E00E9417013D
:1008600080E066E041E00E94170183E30E945903A3
:1008700082E30E94590388E20E9459038CE00E949F
:10088000590381E00E9459030895DF93CF9300D06C
:1008900000D000D0CDB7DEB78FB780688FBF1B8286
:1008A0001C8281E08D838E83CE0103960E947D049D
:1008B00080E4898382E08A83CE0101960E94490008
:1008C00086E694E060E00E949100FFCF8091600096
:1008D0008A3710F081E401C08F5F809360008091BF
:1008E00060000E94BB0488E893E120E931E0F9014F
:1008F0003197F1F70197D9F70895FC0187B3806B21
:1009000087BBBE982281922F9370906583818295D8
:10091000880F807E892B9081990F990F990F982BC2
:100920008181880F880F892B8DB98EB126952695E8
:100930002170282B2EB90895FC0187B38F7487BBD3
:10094000BE9A2281922F9370906483818295880F42
:10095000807E892B9081990F990F990F982B818117
:10096000880F880F892B8DB98EB126952695217019
:10097000282B2EB908958FB9779BFECF8FB108959C
:10098000AC0120E005C0EFB9779BFECF8FB12F5FA0
:10099000FA01E20FF11D80818823A9F70895DF9302
:1009A000CF930F92CDB7DEB7DC01CE010196282F91
:1009B0008FB9779BFECF9FB18FEF89839C9390E097
:1009C00009C09F5F2FB9779BFECF8FB1FD01E90F63
:1009D000F11D8083FD01E90FF11D8081833289F7CC
:1009E00010820F90CF91DF910895FB019F01E89451
:1009F0004230C4F04532B4F44A3029F497FB1EF477
:100A0000909581959F4F642F77270E942605805DE2
:100A10008A330CF0895D8193CB010097A1F716F41E
:100A20005DE251931082C9010C941605DC01FC01B2
:100A3000672F71917723E1F7329704C07C916D9312
:100A400070836291AE17BF07C8F30895AA1BBB1B42
:100A500051E107C0AA1FBB1FA617B70710F0A61BBE
:100A6000B70B881F991F5A95A9F780959095BC01DF
:080A7000CD010895F894FFCFB9
:020A780041003B
:00000001FF
